:020000040800F2
:10000000E008002041070008A50700087B11000850
:10001000A5070008A5070008A507000800000000C4
:10002000000000000000000000000000A50700081C
:10003000A507000800000000A5070008A5070008A4
:10004000A5070008A5070008A5070008A5070008E0
:10005000A5070008A5070008A5070008A5070008D0
:10006000A5070008A5070008A507000895020008D5
:10007000A5070008A5070008A5070008A5070008B0
:10008000A5070008A5070008A5070008A5070008A0
:10009000A5070008A5070008A5070008A507000890
:1000A000A5070008A5070008A5070008A507000880
:1000B000A5070008A5070008A5070008A507000870
:1000C000A5070008A5070008A5070008A507000860
:1000D000A507000899090008A5070008A50700085A
:1000E000A5070008A5070008A5070008A507000840
:1000F000A5070008A5070008A50700088902000851
:10010000A5070008A5070008A5070008A102000828
:10011000A5070008A5070008A5070008A50700080F
:10012000A5070008A5070008A5070008A5070008FF
:10013000A5070008A5070008A5070008A5070008EF
:10014000A5070008A5070008A5070008A5070008DF
:10015000A5070008A5070008A5070008A5070008CF
:10016000A5070008A5070008A5070008A5070008BF
:10017000A5070008A5070008A5070008A5070008AF
:10018000A5070008A507000880B500AF394B1A681D
:10019000394B1B681046194601F03CF90346002B09
:1001A00067D0364B1B68002B4DD000BF314B1B680E
:1001B000184601F013F90346002BF7D12D4B1A68AE
:1001C0002D4B1B681046194601F066F92C4B1B6835
:1001D0001A462C4B9A60294B1A684FF6FF739A42C5
:1001E00028BF1A46274B1A61224B1B68184625491F
:1001F00001F07CF81F4B1B6818464FF0010101F01D
:10020000D1F81F4B1A681D4B19684FF6FF739942BE
:1002100038BF0B464FEA4303D218194B1A60174BED
:100220001A68164B19684FF6FF73994238BF0B4690
:10023000D21A124B1A600F4B1B6818464FF001017F
:1002400001F0B0F815E00B4B1B6818464FF00001A9
:1002500001F0A8F8074B1A68074B1B6810461946AF
:1002600001F01AF9064B1B6818464FF0000101F027
:1002700041F980BD1400002020000020040000206F
:1002800064000020A400002080B500AFFFF77CFFD1
:1002900080BD00BF80B500AFFFF776FF80BD00BF17
:1002A00080B500AF0D484FF0020101F043F903465D
:1002B000002B12D00A4B1B68022B07D101F024F946
:1002C00003464FF00400194600F01EFA01F01CF935
:1002D00003460248194601F01FF980BD003C00406A
:1002E0000C00002080B58AB000AF786039604FF014
:1002F00000037B624FF000033B624FF00003FB61A1
:100300004FF00003BB617B681B8A9BB27B627B6AF8
:1003100023F440537B623B68DB887A6A42EA03033A
:100320007B627B6A9AB27B681A827B689B899BB2EC
:100330007B627B6A23F4B05323F00C037B623B683F
:100340009A883B681B8942EA03039AB23B685B893F
:1003500042EA03039BB27A6A42EA03037B627B6A46
:100360009AB27B689A817B689B8A9BB27B627B6A2C
:1003700023F440737B623B689B897A6A42EA0303F9
:100380007B627B6A9AB27B689A8207F108031846FF
:1003900000F0B0FC7A683A4B9A4203D07A68394B45
:1003A0009A4202D17B693B6201E03B693B627B6818
:1003B0009B899BB29BB21BB2002B0FDA3A6A1346A1
:1003C0004FEA83039B184FEA83029A183B681B6825
:1003D0004FEA4303B2FBF3F3FB610EE03A6A1346C4
:1003E0004FEA83039B184FEA83029A183B681B6805
:1003F0004FEA8303B2FBF3F3FB61FA69224BA3FBE1
:1004000002134FEA53134FEA03137B627B6A4FEAEE
:1004100013134FF0640202FB03F3FA69D31ABB61B2
:100420007B689B899BB29BB21BB2002B10DABB6925
:100430004FEAC30303F13202134BA3FB02134FEA4B
:10044000531303F007037A6A42EA03037B620FE067
:10045000BB694FEA031303F132020B4BA3FB0213F8
:100460004FEA531303F00F037A6A42EA03037B62F5
:100470007B6A9AB27B681A8107F12807BD4680BD66
:1004800000100140001401401F85EB5180B483B07F
:1004900000AF78600B46FB70FB78002B08D07B68C0
:1004A0009B899BB243F400539AB27B689A8107E020
:1004B0007B689B899BB223F400539AB27B689A8134
:1004C00007F10C07BD4680BC704700BF80B483B005
:1004D00000AF78600B467B807B8803F0FF039AB205
:1004E0007B689A8007F10C07BD4680BC704700BF4F
:1004F00080B483B000AF78607B689B889BB203F0C8
:10050000FF039BB2184607F10C07BD4680BC70473D
:1005100080B487B000AF786013460A467A807B705B
:100520004FF000033B614FF00003FB604FF000030E
:10053000BB604FF000037B617B687B617B88DBB233
:100540004FEA5313DBB23B617B8803F01F03FB6070
:10055000FB684FF0010202FA03F3BB603B69012B19
:1005600004D17B6903F10C037B610BE03B69022B37
:1005700004D17B6903F110037B6103E07B6903F124
:1005800014037B617B78002B07D07B697A69116843
:10059000BA6841EA02021A6008E07B697A69116868
:1005A000BA686FEA020201EA02021A6007F11C0748
:1005B000BD4680BC704700BF80B485B000AF786096
:1005C0000B467B804FF00003FB737B681B889AB25D
:1005D0007B8802EA03039BB2002B03D04FF0010398
:1005E000FB7302E04FF00003FB73FB7B184607F13F
:1005F0001407BD4680BC704780B487B000AF7860F8
:100600000B467B804FF00003FB604FF000037B61E3
:100610004FF00003BB604FF00003FB747B88DBB23C
:100620004FEA5313DBB2BB607B8803F01F037B618F
:100630007B694FF0010202FA03F37B61BB68012B77
:1006400007D17B689B899BB27A6902EA03037B61CD
:1006500011E0BB68022B07D17B681B8A9BB27A69C9
:1006600002EA03037B6106E07B689B8A9BB27A699E
:1006700002EA03037B617B884FEA13239BB2FB6092
:10068000FB684FF0010202FA03F3FB607B681B88F2
:100690009BB2FA6802EA0303FB607B69002B06D079
:1006A000FB68002B03D04FF00103FB7402E04FF016
:1006B0000003FB74FB7C184607F11C07BD4680BC99
:1006C000704700BF80B485B000AF78600B467B8078
:1006D0004FF00003FB814FF00003BB817B884FEAA2
:1006E0001323FB81FB894FF0010202FA03F3BB8164
:1006F000BB896FEA03039AB27B681A8007F114077B
:10070000BD4680BC704700BF80B485B000AF786044
:100710000B467B804FF00003FB60084BFB60FA68E0
:100720007B68D31803F10803FB60FB687A881A60C2
:1007300007F11407BD4680BC704700BF007400403D
:1007400080B582B000AF124B7B60124B3B600BE078
:100750007B681A683B681A603B6803F104033B60DE
:100760007B6803F104037B603A680B4B9A42EFD33A
:100770000A480B494FF000028842B8BF40F8042BEA
:10078000FADB00F013F807F10807BD4680BD00BF93
:100790005C1A0008000000205800002058000020CB
:1007A000E000002080B400AFFEE700BF80B582B05B
:1007B00000AF4FF03103BB804FF00103FB714FF4EA
:1007C000165000F00DFA00F0E3FC104B9847104B68
:1007D000984710484FF4A04100F054FC0D484FF4E6
:1007E000204100F05DFC0C4B984706E007F1040344
:1007F00018464FF0020100F0C7F9FB79002BF5D144
:10080000184607F10807BD4680BD00BF650800080F
:100810001D08000800040240C908000880B582B025
:1008200000AF4FF002004FF0010100F021FB4FF448
:1008300070433B604FF001033B714FF003037B714A
:100840004FF00003BB714FF00003FB713B460448BF
:10085000194600F073FB07F10807BD4680BD00BFD5
:100860000004024080B582B000AF4FF002004FF0AC
:10087000010100F0FDFA4FF0C0033B604FF00203AE
:100880003B714FF003037B714FF00003BB714FF0DE
:100890000103FB713B460B48194600F04FFB09482A
:1008A0004FF006014FF0020200F008FC05484FF03F
:1008B00007014FF0020200F001FC07F10807BD46F6
:1008C00080BD00BF0004024080B58AB000AF4FF089
:1008D00004004FF0010100F0EDFA2C4B1A682C4B8C
:1008E000A3FB02134FEAD3439BB203F1FF33FB8414
:1008F0004FF6FF73FB61FB8C3B834FF000033B849F
:100900004FF000037B8307F118032248194600F0DB
:100910009DFE4FF06003BB804FF00103FB804FF062
:100920000003FB604FF000033B8207F1040319480A
:10093000194600F039FF17484FF0080101F050F850
:100940004FF00103FB804FF00003FB6007F104034D
:100950001048194600F0ACFF0E484FF0080101F0B6
:100960005DF84FF00103FB804FF00003FB60094886
:100970004FF0010100F0D8FE06484FF0010100F0F1
:10098000F3FE07F12807BD4680BD00BF44000020EC
:1009900083DE1B430008004080B500AF734840F27F
:1009A0002661FFF729FE0346012B19D16F484FF04E
:1009B0004001FFF701FE0346002B0CD06C4B1B8857
:1009C0006A481946FFF782FD684840F226614FF0F9
:1009D0000002FFF79DFD654840F22661FFF772FEB9
:1009E000624840F22551FFF707FE0346012B1AD15A
:1009F0005E484FF02001FFF7DFFD0346002B0DD0CE
:100A00005A48FFF775FD03461A46594B1A80574856
:100A100040F226614FF00102FFF77AFD534840F2A1
:100A20002551FFF74FFE524B1B88822B0AD15148AC
:100A30004FF4A04100F026FB4E484FF4204100F057
:100A40002FFB6EE04A4B1B888E2B0AD149484FF48E
:100A5000A04100F025FB47484FF4204100F012FB75
:100A60005FE0434B1B888C2B14D142484FF48051DC
:100A700000F008FB3F484FF4005100F011FB3D48E7
:100A80004FF4804100F00CFB3A484FF4004100F075
:100A900007FB46E0364B1B88B02B14D135484FF48A
:100AA000804100F0EFFA33484FF4005100F0F8FABB
:100AB00030484FF4805100F0F3FA2E484FF40041D3
:100AC00000F0EEFA2DE02A4B1B88C22B0ED12A4BE8
:100AD0001B6803F11E02284B1A60274B1B68632B0F
:100AE0001FDD254B4FF064021A601AE0204B1B8873
:100AF000C02B0ED1204B1B68A3F11E021E4B1A60A7
:100B00001D4B1B68132B0CDC1B4B4FF014021A609F
:100B100007E0174B1B88802B03D1174B4FF00002C7
:100B20001A601649144B1A6813464FEA03439B1A7E
:100B3000134A82FB03024FEA62124FEAE373D31AAD
:100B40004B630E490C4B1A6813464FEA03439B1A3A
:100B50000B4A82FB03024FEA62124FEAE373D31A95
:100B60008B63084800F0B0F880BD00BF0010014062
:100B700060000020000402405C00002000080040EB
:100B80001F85EB51A086010080B582B000AF786070
:100B9000396012E000BF11484FF08001FFF70CFDF3
:100BA0000346002BF7D07B681B787A6802F10102BC
:100BB0007A600A481946FFF789FC3B68002B0CBF96
:100BC00000230123DBB23A6802F1FF323A60002BC6
:100BD000E0D107F10807BD4680BD00BF001001400D
:100BE00080B58AB000AF78604FF010004FF001017F
:100BF00000F082F94FF001004FF0010100F038F9E8
:100C00004FF4C0633B624FF0020387F824304FF08B
:100C1000020387F825304FF0000387F826304FF0A5
:100C2000000387F8273007F120032548194600F014
:100C300085F923484FF009014FF0070200F03EFA12
:100C40001F484FF00A014FF0070200F037FA7B68A7
:100C50003B614FF00003BB824FF00003FB824FF07B
:100C600000033B834FF00003BB834FF00C037B83F7
:100C700007F1100313481946FFF734FB114840F2FF
:100C800025514FF00102FFF743FC4FF025033B7362
:100C90004FF000037B734FF00003BB734FF0010371
:100CA000FB7307F10C03184600F064FC05484FF095
:100CB0000101FFF7EBFB07F12807BD4680BD00BF30
:100CC000000002400010014080B483B000AF7860A3
:100CD00000BF7B68002B0CBF00220122D2B203F1BF
:100CE000FF337B60002AF4D107F10C07BD4680BCBE
:100CF000704700BF80B489B000AF78604FF0000348
:100D0000BB614FF000037B614FF00003FB614FF0CC
:100D100002033B614FF00003FB604FF00203BB6036
:100D20004F4B9B6803F00C03BB61BB69042B07D0DE
:100D3000082B09D0002B47D17B684A4A1A6047E04C
:100D40007B68494A1A6043E0454B5B6803F48003C3
:100D50004FEA9353FB60424B5B6803F03F03BB6079
:100D6000FB68002B0FD0404ABB68B2FBF3F23C4B50
:100D7000596847F6C07301EA03034FEA931303FB74
:100D800002F3FB610EE0374ABB68B2FBF3F2344B6F
:100D9000596847F6C07301EA03034FEA931303FB54
:100DA00002F3FB612E4B5B6803F440334FEA1343BD
:100DB00003F101034FEA43033B61FA693B69B2FB6C
:100DC000F3F27B681A6003E07B68264A1A6000BF72
:100DD000234B9B6803F0F003BB61BB694FEA13131D
:100DE000BB61224ABB69D3181B78DBB27B617B688D
:100DF0001A687B6922FA03F27B685A60184B9B6879
:100E000003F4E053BB61BB694FEA9323BB61174A0C
:100E1000BB69D3181B78DBB27B617B685A687B693E
:100E200022FA03F27B689A600D4B9B6803F46043DF
:100E3000BB61BB694FEA5333BB610C4ABB69D31832
:100E40001B78DBB27B617B685A687B6922FA03F20C
:100E50007B68DA6007F12407BD4680BC704700BF9D
:100E6000003802400024F40000127A003400002010
:100E700080B483B000AF78600B46FB70FB78002B2A
:100E800007D00B4B0A4A116B7A6841EA02021A63D7
:100E900008E0074B064A116B7A686FEA020201EA22
:100EA00002021A6307F10C07BD4680BC704700BF01
:100EB0000038024080B483B000AF78600B46FB700E
:100EC000FB78002B07D00B4B0A4A116C7A6841EA79
:100ED00002021A6408E0074B064A116C7A686FEA4E
:100EE000020201EA02021A6407F10C07BD4680BC47
:100EF000704700BF0038024080B483B000AF786014
:100F00000B46FB70FB78002B07D00B4B0A4A516C49
:100F10007A6841EA02025A6408E0074B064A516CBB
:100F20007A686FEA020201EA02025A6407F10C07CA
:100F3000BD4680BC704700BF0038024080B487B017
:100F400000AF786039604FF000037B614FF0000321
:100F50003B614FF00003FB604FF000037B6187E0D3
:100F60007B694FF0010202FA03F33B613B681A68A8
:100F70003B6902EA0303FB60FA683B699A4273D15A
:100F80007B681A687B694FEA43034FF0030101FA5B
:100F900003F36FEA03031A407B681A607B681A68E0
:100FA0003B681B7919467B694FEA430301FA03F357
:100FB0001A437B681A603B681B79012B03D03B689E
:100FC0001B79022B34D17B689A687B694FEA430313
:100FD0004FF0030101FA03F36FEA03031A407B6841
:100FE0009A607B689A683B685B7919467B694FEA2F
:100FF000430301FA03F31A437B689A607B685A68DB
:101000007B699BB24FF0010101FA03F36FEA03031E
:101010001A407B685A607B685A683B689B7919461E
:101020007B699BB201FA03F39BB21A437B685A6057
:101030007B68DA687B699BB24FEA43034FF0030198
:1010400001FA03F36FEA03031A407B68DA607B68F6
:10105000DA683B68DB7919467B694FEA430301FA9A
:1010600003F31A437B68DA607B6903F101037B6158
:101070007B690F2B7FF674AF07F11C07BD4680BC60
:10108000704700BF80B483B000AF78600B467B80B0
:101090007B687A881A8307F10C07BD4680BC7047CD
:1010A00080B483B000AF78600B467B807B687A8821
:1010B0005A8307F10C07BD4680BC704780B485B0E9
:1010C00000AF786013460A467A807B704FF00003C9
:1010D000FB604FF00003BB607A787B8803F0070366
:1010E0004FEA830302FA03F3FB607B884FEAD303E2
:1010F0009BB21A467B884FEAD3039BB219467B68A2
:1011000001F1080153F821107B8803F007034FEA2F
:1011100083034FF00F0000FA03F36FEA0303194053
:101120007B6802F1080243F822107B884FEAD30360
:101130009BB21A467B6802F1080253F82220FB6832
:1011400042EA0303BB607B884FEAD3039BB21A4693
:101150007B6802F10802B96843F8221007F114070E
:10116000BD4680BC704700BFABBE01E000207047A9
:10117000002A00D010600120704706980188034AB9
:10118000914202D1043006907047FEE7ABBE0000EA
:1011900080B500AF124B124A126842F001021A6089
:1011A0000F4B4FF000029A600D4A0D4B1B6823F065
:1011B000847323F480331360094B0A4A5A60084B46
:1011C000074A126822F480221A60054B4FF0000291
:1011D000DA6000F00BF8044B4FF000629A6080BDBB
:1011E000003802401030002400ED00E080B483B0ED
:1011F00000AF4FF000037B604FF000033B60374BC4
:10120000364A126842F480321A60344B1B6803F489
:1012100000333B607B6803F101037B603B68002B7C
:1012200003D17B68B3F5A06FEFD12C4B1B6803F49F
:101230000033002B03D04FF001033B6002E04FF07E
:1012400000033B603B68012B42D1244B234A126CC4
:1012500042F080521A64224B214A126842F48042C2
:101260001A601E4B1D4A92689A601C4B1B4A92687A
:1012700042F400429A60194B184A926842F4A05214
:101280009A60164B174A5A60144B144A126842F07F
:1012900080721A6000BF114B1B6803F00073002BB3
:1012A000F9D0114B40F205621A600C4B0B4A926860
:1012B00022F003029A60094B084A926842F0020247
:1012C0009A6000BF054B9B6803F00C03082BF9D113
:1012D00007F10C07BD4680BC704700BF00380240D4
:1012E0000070004019544007003C024080B485B0B3
:1012F00000AF786039604FF00003FB607B681B68CB
:10130000FB60FA68264B02EA0303FB603B681A683D
:101310003B68DB681A433B685B691A433B689B691F
:101320001A433B68DB691A433B681B6A1A433B68F4
:101330005B6A1A433B689B6A1A433B685B6B1A43C0
:101340003B689B6B42EA0303FA6842EA0303FB60D3
:101350007B68FA681A607B685B69FB60FB6823F056
:101360000703FB603B68DA6A3B681B6B42EA0303D6
:10137000FA6842EA0303FB607B68FA685A613B68DB
:101380001A697B685A603B685A687B689A603B6858
:101390009A687B68DA6007F11407BD4680BC704725
:1013A0003F801CF080B483B000AF78600B46FB70C8
:1013B000FB78002B06D07B681B6843F001027B683A
:1013C0001A6005E07B681B6823F001027B681A60E5
:1013D00007F10C07BD4680BC704700BF80B485B0E4
:1013E00000AF78604FF00003FB737B681B6803F06D
:1013F0000103DBB2002B03D04FF00103FB7302E0CB
:101400004FF00003FB73FB7B184607F11407BD4642
:1014100080BC704780B487B000AF786039604FF00F
:101420000003FB754FF00003FB607A68164B9A428D
:1014300002D8164B3B6101E0154B3B613B6803F062
:101440000053002B03D03B695B68FB6002E03B6903
:101450001B68FB60FA680F4B02EA0303FB60FA6843
:101460003B6802EA0303002B03D04FF00103FB7536
:1014700002E04FF00003FB75FB7D184607F11C07E7
:10148000BD4680BC704700BF0F6402400060024050
:10149000006402407D0F7D0F80B485B000AF78609E
:1014A00039607A680F4B9A4202D80F4BFB6001E01B
:1014B0000E4BFB603B6803F00053002B06D03A68EC
:1014C0000B4B02EA0303FA68D36005E03A68084B65
:1014D00002EA0303FA68936007F11407BD4680BC73
:1014E000704700BF0F640240006002400064024089
:1014F0007D0F7D0F80B483B000AF7860396007F155
:101500000C07BD4680BC704780B400AF4FF00003AD
:101510001846BD4680BC704780B483B000AF786089
:101520000B467B807B687A889A8107F10C07BD4661
:1015300080BC704780B485B000AF78600B467B807C
:101540004FF00003FB737B681B899AB27B8802EA29
:1015500003039BB2002B03D04FF00103FB7302E0A7
:101560004FF00003FB73FB7B184607F11407BD46E1
:1015700080BC704780B485B000AF78604FF0000346
:10158000FB734FF00003BB734FF00F037B737B685B
:10159000DB78002B3ED02B4BDB686FEA030303F4B0
:1015A000E0634FEA1323FB73FB7BC3F10403BB73BC
:1015B0007A7BFB7B42FA03F37B737B685B781A468A
:1015C000BB7B02FA03F3FB737B689A787B7B02EAAE
:1015D0000303DAB2FB7B42EA0303FB73FB7B4FEAB4
:1015E0000313FB73184A7B681B78D318FA7B83F8C4
:1015F0000023154B7A6812784FEA5212D2B27968FA
:10160000097801F01F014FF0010000FA01F143F8E1
:10161000221011E00C4B7A6812784FEA5212D2B2C3
:101620007968097801F01F014FF0010000FA01F11B
:1016300002F1200243F8221007F11407BD4680BCD6
:10164000704700BF00ED00E000E100E080B485B02D
:1016500000AF786039604FF00003FB817B681B8826
:10166000FB817A68294B9A4213D07A68284B9A42B8
:101670000FD07B68B3F1804F0BD07A68254B9A422C
:1016800007D07A68244B9A4203D07A68234B9A4257
:1016900009D1FB8923F07003FB813B685A88FB89E1
:1016A00042EA0303FB817A681D4B9A420DD07A68A7
:1016B0001C4B9A4209D0FB8923F44073FB813B68A1
:1016C0001A89FB8942EA0303FB817B68FA891A8045
:1016D0003B685A687B68DA623B681A887B681A85BF
:1016E0007A680A4B9A4203D07A68094B9A4204D12D
:1016F0003B689B7A1A467B681A867B684FF001022A
:101700009A8207F11407BD4680BC70470000014073
:10171000000401400004004000080040000C0040AC
:10172000001000400014004080B483B000AF786027
:101730000B46FB70FB78002B08D07B681B889BB2A4
:1017400043F080039AB27B681A8007E07B681B88AD
:101750009BB223F080039AB27B681A8007F10C07D2
:10176000BD4680BC704700BF80B483B000AF7860D6
:101770000B46FB70FB78002B08D07B681B889BB264
:1017800043F001039AB27B681A8007E07B681B88EC
:101790009BB223F001039AB27B681A8007F10C0711
:1017A000BD4680BC704700BF80B485B000AF786094
:1017B00039604FF000037B814FF00003FB814FF055
:1017C0000003BB817B681B8C9BB223F001039AB2A0
:1017D0007B681A847B681B8CFB817B689B88BB8140
:1017E0007B681B8B7B817B8923F070037B817B89EA
:1017F00023F003037B813B681A887B8942EA030359
:101800007B81FB8923F00203FB813B689A89FB897A
:1018100042EA0303FB813B685A88FB8942EA0303DF
:10182000FB817A68204B9A4203D07A681F4B9A4218
:1018300027D1FB8923F00803FB813B68DA89FB8908
:1018400042EA0303FB81FB8923F00403FB813B682D
:101850009A88FB8942EA0303FB81BB8923F48073E6
:10186000BB81BB8923F40073BB813B681A8ABB89A7
:1018700042EA0303BB813B685A8ABB8942EA0303FD
:10188000BB817B68BA899A807B687A891A833B68B6
:101890009A687B685A637B68FA891A8407F114078F
:1018A000BD4680BC704700BF0000014000040140FD
:1018B00080B485B000AF786039604FF000037B8161
:1018C0004FF00003FB814FF00003BB817B681B8C52
:1018D0009BB223F010039AB27B681A847B681B8C3E
:1018E000FB817B689B88BB817B681B8B7B817B89B1
:1018F00023F4E0437B817B8923F440737B813B6845
:101900001B884FEA03239AB27B8942EA03037B8157
:10191000FB8923F02003FB813B689B894FEA03137B
:101920009AB2FB8942EA0303FB813B685B884FEA7A
:1019300003139AB2FB8942EA0303FB817A68264BC0
:101940009A4203D07A68254B9A4233D1FB8923F01F
:101950008003FB813B68DB894FEA03139AB2FB8962
:1019600042EA0303FB81FB8923F04003FB813B68D0
:101970009B884FEA03139AB2FB8942EA0303FB8177
:10198000BB8923F48063BB81BB8923F40063BB81E3
:101990003B681B8A4FEA83039AB2BB8942EA03037E
:1019A000BB813B685B8A4FEA83039AB2BB8942EAF8
:1019B0000303BB817B68BA899A807B687A891A8322
:1019C0003B689A687B689A637B68FA891A8407F196
:1019D0001407BD4680BC7047000001400004014070
:1019E00080B485B000AF78600B467B804FF0000379
:1019F000FB817B681B8BFB81FB8923F00803FB8148
:101A0000FA897B8842EA0303FB817B68FA891A839F
:101A100007F11407BD4680BC704700BF80B485B095
:101A200000AF78600B467B804FF00003FB817B6842
:101A30001B8BFB81FB8923F40063FB817B884FEACE
:101A400003239AB2FB8942EA0303FB817B68FA898C
:0C1A50001A8307F11407BD4680BC7047E4
:101A5C00FFFF0000FFFF000000C0120001000000AB
:101A6C0000002000B86002400C3C00402F00000039
:101A7C00000000280000002400004020000000228C
:101A8C000000002100000000010203040102030415
:101A9C0006070809007A030A000000000000000095
:081AAC0001020304060708090A
:0400000508000000EF
:00000001FF
