:020000040800F2
:10000000200D00205D060008B90600086B140008EA
:10001000B9060008B9060008B9060008000000008B
:10002000000000000000000000000000B906000809
:10003000B906000800000000B9060008B90600086B
:10004000B9060008B9060008B9060008B906000894
:10005000B9060008B9060008B9060008B906000884
:10006000B9060008B9060008B90600088D020008A4
:10007000B9060008B9060008B9060008B906000864
:10008000B9060008B9060008B9060008B906000854
:10009000B9060008B9060008B9060008B906000844
:1000A000B9060008B9060008B9060008B906000834
:1000B000B9060008B9060008B9060008B906000824
:1000C000B9060008B9060008B9060008B906000814
:1000D000B90600084D070008B9060008B90600086F
:1000E000B9060008B9060008B9060008B9060008F4
:1000F000B9060008B9060008B90600088102000820
:10010000B9060008B9060008B906000899020008F7
:10011000B9060008B9060008B9060008B9060008C3
:10012000B9060008B9060008B9060008B9060008B3
:10013000B9060008B9060008B9060008B9060008A3
:10014000B9060008B9060008B9060008B906000893
:10015000B9060008B9060008B9060008B906000883
:10016000B9060008B9060008B9060008B906000873
:10017000B9060008B9060008B9060008B906000863
:10018000B9060008B906000880B500AF374B1A68F9
:10019000374B1B681046194601F0FEF90346002B49
:1001A00062D0344B1B68002B4AD000BF2F4B1B681A
:1001B000184601F0D9F90346002BF7D12B4B1A68EA
:1001C0002B4B1B681046194601F022FA2A4B1B687C
:1001D0001A462A4B9A60274B1A684FF6FF739A42C9
:1001E00028BF1A46254B1A61204B1B681846234925
:1001F00001F048F91D4B1B681846012101F098F9E0
:100200001D4B1A681B4B19684FF6FF73994238BF94
:100210000B465B001A44184B1A60164B1A68154BB4
:1002200019684FF6FF73994238BF0B46D21A114B2B
:100230001A600E4B1B681846012101F079F913E092
:100240000A4B1B681846002101F072F9074B1A6827
:10025000074B1B681046194601F0DAF9064B1B687C
:100260001846002101F002FA80BD00BF14000020F2
:10027000200000200400002084040020C40400208A
:1002800080B500AFFFF780FF80BD00BF80B500AF35
:10029000FFF77AFF80BD00BF80B500AF0C48022198
:1002A00001F0B0FA0346002B11D00A4B1B68022B59
:1002B00006D101F0E5F903460420194600F0B4F92F
:1002C00001F0DEF903460248194601F08DFA80BDBF
:1002D000003C00400C00002080B58AB000AF786080
:1002E000396000237B6200233B620023FB61002313
:1002F000BB617B681B8A9BB27B627B6A23F44053A1
:100300007B623B68DB887A6A13437B627B6A9AB2C2
:100310007B681A827B689B899BB27B627B6A23F431
:10032000B05323F00C037B623B689A883B681B89BF
:1003300013439AB23B685B8913439BB27A6A1343B7
:100340007B627B6A9AB27B689A817B689B8A9BB24C
:100350007B627B6A23F440737B623B689B897A6A89
:1003600013437B627B6A9AB27B689A8207F1080327
:10037000184600F011FB7A68314B9A4203D07A6834
:10038000304B9A4202D17B693B6201E03B693B62A0
:100390007B689B899BB29BB21BB2002B0CDA3A6A3A
:1003A00013469B0013449A001A443B681B685B0089
:1003B000B2FBF3F3FB610BE03A6A13469B00134474
:1003C0009A001A443B681B689B00B2FBF3F3FB6185
:1003D000FA691D4BA3FB02135B091B017B627B6A5D
:1003E0001B09642202FB03F3FA69D31ABB617B6821
:1003F0009B899BB29BB21BB2002B0DDABB69DB0061
:1004000003F13202104BA3FB02135B0903F0070355
:100410007A6A13437B620CE0BB691B0103F1320271
:10042000094BA3FB02135B0903F00F037A6A134322
:100430007B627B6A9AB27B681A812837BD4680BD91
:1004400000100140001401401F85EB5180B483B0BF
:1004500000AF78600B46FB70FB78002B08D07B6800
:100460009B899BB243F400539AB27B689A8107E060
:100470007B689B899BB223F400539AB27B689A8174
:100480000C37BD465DF8047B704700BF80B483B075
:1004900000AF78600B467B807B88C3F308039AB279
:1004A0007B689A800C37BD465DF8047B704700BFBF
:1004B00080B487B000AF786013460A467A807B70BC
:1004C00000233B610023FB600023BB6000237B61B2
:1004D0007B687B617B88DBB25B09DBB23B617B883D
:1004E00003F01F03FB60FB68012202FA03F3BB6009
:1004F0003B69012B03D17B690C337B6109E03B69CC
:10050000022B03D17B6910337B6102E07B691433DA
:100510007B617B78002B06D07B697A691168BA68A9
:100520000A431A6006E07B697A691168BA68D243A7
:100530000A401A601C37BD465DF8047B704700BF57
:1005400080B485B000AF78600B467B800023FB73DE
:100550007B681B889AB27B8813409BB2002B02D029
:100560000123FB7301E00023FB73FB7B1846143768
:10057000BD465DF8047B704780B487B000AF7860FB
:100580000B467B800023FB6000237B610023BB6064
:100590000023FB747B88DBB25B09DBB2BB607B882A
:1005A00003F01F037B617B69012202FA03F37B6185
:1005B000BB68012B06D17B689B899BB27A6913408B
:1005C0007B610FE0BB68022B06D17B681B8A9BB264
:1005D0007A6913407B6105E07B689B8A9BB27A69EC
:1005E00013407B617B881B0A9BB2FB60FB68012286
:1005F00002FA03F3FB607B681B889BB2FA68134026
:10060000FB607B69002B05D0FB68002B02D0012327
:10061000FB7401E00023FB74FB7C18461C37BD46CD
:100620005DF8047B704700BF80B485B000AF786090
:100630000B467B800023FB60074BFB60FA687B68FE
:1006400013440833FB60FB687A881A601437BD4690
:100650005DF8047B704700BF0074004080B582B035
:1006600000AF104B7B60104B3B6007E03B681A1DEE
:100670003A607A68111D796012681A603A680B4B0B
:100680009A42F3D30A480B494FF000028842B8BFA0
:1006900040F8042BFFF6FAAF00F012F80837BD4619
:1006A00080BD00BF7C1C0008000000207C040020EE
:1006B0007C0400202005002080B400AFFEE700BFCE
:1006C00080B584B000AF1B4A3B1D07CA03C31A8024
:1006D0000123FB7300F034F94FF4E14000F0D6F849
:1006E00000F0ACF817E014482921062201F084F943
:1006F000114B1B781946104B9B781A460E4B1B79F1
:100700000E4800F05FFD3B1D18460A2100F072F80C
:100710000B4800F031F9FB7B002BE4D109480021A4
:1007200001F034F808480021FFF790FE1846103712
:10073000BD4680BD341C000814050020281C00089C
:1007400080969800003001400010014080B582B0D2
:1007500000AF214840F22551FFF70EFF0346002B62
:1007600036D01D4B9B889BB2FB71FB79302B12D08E
:100770001A4B1B78002B0ED1184B1B78184AF979AD
:10078000D154164B1B780133DAB2144B1A70154B47
:1007900001221A7005E0114B00221A70114B002241
:1007A0001A70104B1B78012B09D10F484FF40041F0
:1007B00000F0EEFD0D48092100F01CF808E00A48A1
:1007C0004FF4004100F0F2FD09480A2100F012F850
:1007D0000837BD4680BD00BF0010014081040020E5
:1007E0001C05002010050020000C0240401C0008E1
:1007F0004C1C000880B582B000AF786039600FE013
:1008000000BF0B488021FFF79BFE0346002BF8D06A
:100810007B685A1C7A601B7805481946FFF736FE3C
:100820003B685A1E3A60002BEAD10837BD4680BDAE
:100830000010014080B400AFFEE700BF80B500AFFC
:10084000104B40221A700F4B00225A700D4B07229A
:100850009A700C4B0022DA700A4B00221A71094878
:1008600001F04AF81E2000F087F8074B20221A708A
:10087000054B01225A70044B0C229A70024801F079
:1008800061F880BD000500200805002080B58AB011
:1008900000AF78601020012100F046F9022001210C
:1008A00000F024F9C0233B62022387F8243002239E
:1008B00087F82530002387F82630002387F8273073
:1008C00007F120031C48194600F0D4FC1A48062101
:1008D000072200F079FD18480721072200F074FD77
:1008E0007B683B610023BB820023FB8200233B83A8
:1008F0000023BB830C237B8307F110030F481946A9
:10090000FFF7EAFC0D4840F225510122FFF7D0FD28
:1009100025233B7300237B730023BB730123FB73ED
:1009200007F10C03184600F089FF04480121FFF786
:100930008DFD2837BD4680BD0004024000100140F7
:1009400080B582B000AF0820012100F0CFF84FF44D
:1009500000433B6001233B710023BB710123FB710A
:1009600002237B713B460348194600F083FC08379D
:10097000BD4680BD000C024080B483B000AF7860FB
:1009800000BF7B685A1E7A60002BFAD10C37BD4637
:100990005DF8047B704700BF80B489B000AF786019
:1009A0000023BB6100237B610023FB6102233B61C9
:1009B0000023FB600223BB60484B9B6803F00C03E1
:1009C000BB61BB69042B07D0082B09D0002B3FD19A
:1009D0007B68434A1A603FE07B68424A1A603BE00A
:1009E0003E4B5B6803F480039B0DFB603B4B5B68F5
:1009F00003F03F03BB60FB68002B0DD0394ABB6896
:100A0000B2FBF3F2354B596847F6C0730B409B09B4
:100A100003FB02F3FB610CE0314ABB68B2FBF3F26B
:100A20002E4B596847F6C0730B409B0903FB02F33A
:100A3000FB612A4B5B6803F440331B0C01335B0002
:100A40003B61FA693B69B2FBF3F27B681A6003E031
:100A50007B68234A1A6000BF204B9B6803F0F003B9
:100A6000BB61BB691B09BB611F4ABB6913441B788F
:100A7000DBB27B617B681A687B69DA407B685A600D
:100A8000164B9B6803F4E053BB61BB699B0ABB61D7
:100A9000154ABB6913441B78DBB27B617B685A68DB
:100AA0007B69DA407B689A600C4B9B6803F4604377
:100AB000BB61BB695B0BBB610B4ABB6913441B7811
:100AC000DBB27B617B685A687B69DA407B68DA60FD
:100AD0002437BD465DF8047B704700BF00380240F4
:100AE0000024F40040787D013400002080B483B0FD
:100AF00000AF78600B46FB70FB78002B06D0094BEB
:100B0000084A116B7A680A431A6306E0054B054AE6
:100B1000116B7A68D2430A401A630C37BD465DF800
:100B2000047B70470038024080B483B000AF786027
:100B30000B46FB70FB78002B06D0094B084A516C22
:100B40007A680A435A6406E0054B054A516C7A6894
:100B5000D2430A405A640C37BD465DF8047B7047A7
:100B60000038024080B483B000AF78600B46FB7061
:100B7000FB78002B06D0094B084A116A7A680A43B1
:100B80001A6206E0054B054A116A7A68D2430A40A8
:100B90001A620C37BD465DF8047B7047003802408E
:100BA00080B483B000AF78600B46FB70FB78002BFD
:100BB00006D0094B084A516A7A680A435A6206E02D
:100BC000054B054A516A7A68D2430A405A620C378B
:100BD000BD465DF8047B70470038024080B483B0A6
:100BE00000AF0346FB710C37BD465DF8047B7047D0
:100BF00080B483B000AF78600B46FB707B68FA78F6
:100C00001A70012318460C37BD465DF8047B704707
:100C100080B485B000AF786039600023FB600AE0E3
:100C20007B685A1C7A603A68511C396012781A70D5
:100C3000FB680133FB603B681B78002BF0D1FB683D
:100C400018461437BD465DF8047B704780B586B002
:100C500000AFF8607A603B600B46FB7200237B615B
:100C60007B68013B7B603B68092B10D93A681E4BBF
:100C7000A3FB0213DB08FA7AF86811467A68FFF7DB
:100C8000E5FF78617B69FA681344FB6011E00DE0D1
:100C9000FB7AF8681946FFF7ABFFFB680133FB608E
:100CA0007B6901337B617B68013B7B607B68002B48
:100CB000EEDC39680C4BA3FB0123DA0813469B00DA
:100CC00013445B00CA1AD3B23033DBB2F86819465A
:100CD000FFF78EFF03467A6913447B617B691846F0
:100CE0001837BD4680BD00BFCDCCCCCC80B586B01A
:100CF00000AFF8607A603B600B46FB7200237B61BB
:100D00003B68002B03DA3B685B423B6101E03B68D8
:100D10003B617B68013B7B603B69092B21D93B68C8
:100D2000002B0DDA3A692F4BA3FB0213DB085B4261
:100D3000FA7AF86811467A68FFF7D8FF78610BE015
:100D40003A69284BA3FB0213DB08FA7AF8681146CC
:100D50007A68FFF7CBFF78617B69FA681344FB6020
:100D600026E03B68002B03DA7B68013B7B600EE0EA
:100D70000DE0FB7AF8681946FFF73AFFFB6801338C
:100D8000FB607B6901337B617B68013B7B607B6837
:100D9000002BEEDC3B68002B0ADAF8682D21FFF708
:100DA00027FF03467A6913447B61FB680133FB60CC
:100DB00039690C4BA3FB0123DA0813469B0013444B
:100DC0005B00CA1AD3B23033DBB2F8681946FFF7BA
:100DD0000FFF03467A6913447B617B691846183715
:100DE000BD4680BDCDCCCCCC80B588B002AFF8601C
:100DF0007A600A46FA72BB7200237B617B68013B12
:100E00007B603B6A1B09002B12D03B6A1909FA7AF6
:100E1000BB7A0091F86811467A68FFF7E5FF034650
:100E20007A6913447B617B69FA681344FB6011E0C3
:100E30000DE0FB7AF8681946FFF7DAFEFB6801332C
:100E4000FB607B6901337B617B68013B7B607B6876
:100E5000002BEEDC3B6A03F00F03092B0BD83B6A37
:100E6000DBB203F00F03DBB23033DBB2F8681946B4
:100E7000FFF7BEFE19E0BB7A002B0BD03B6ADBB25A
:100E800003F00F03DBB23733DBB2F8681946FFF724
:100E9000AFFE0AE03B6ADBB203F00F03DBB257336D
:100EA000DBB2F8681946FFF7A3FE7B6901337B616B
:100EB0007B6918461837BD4680BD00BF80B58AB033
:100EC00002AFF860B9607A603B600023BB61002329
:100ED0007B61FB68002B03D0FB6800221A70F8E0EE
:100EE000F7E07B681B78252B0BD0FB685A1CFA6057
:100EF0007A68511C796012781A707B6901337B61C2
:100F0000E7E07B6801331B78252B0BD1FB685A1C6B
:100F1000FA6025221A707B6802337B607B6901339B
:100F20007B61D6E02023FB770023BB777B6801330E
:100F30007B607B681B78302B05D13023FB777B6887
:100F400001337B600FE00EE0BB7F1A469200134432
:100F50005B00DAB27B681B781344DBB2303BBB77B3
:100F60007B6801337B607B681B782F2B03D97B6800
:100F70001B78392BE8D9BA7F7B6913441A46BB68C2
:100F80009A4205D9BB68DAB27B69DBB2D31ABB7768
:100F90007B681B78583B202B00F28D8001A252F811
:100FA00023F000BF71100008B7100008B710000848
:100FB000B7100008B7100008B7100008B7100008F5
:100FC000B7100008B7100008B7100008B7100008E5
:100FD000A110000829100008B7100008B710000879
:100FE000B7100008B710000829100008B710000853
:100FF000B7100008B7100008B7100008B7100008B5
:10100000B7100008B7100008B7100008B7100008A4
:101010008D100008B71000083F100008B710000836
:10102000B710000855100008BA7F3B68191D3960D9
:101030001B68F97FF868FFF759FEB8613EE0BA7F98
:101040003B68191D39601B68F97FF868FFF7FEFDE2
:10105000B86133E0BA7F3B68191D39601968FB7FBE
:101060000091F86819460023FFF7BEFEB86125E03D
:10107000BA7F3B68191D39601968FB7F0091F868D9
:1010800019460123FFF7B0FEB86117E03B681A1D4F
:101090003A601B68F8681946FFF7BAFDB8610DE0C1
:1010A0003B681A1D3A601B68DBB2F8681946FFF707
:1010B0009FFDB86102E04FF0FF3325E07B6801330C
:1010C0007B60BB69FA681344FB607A69BB691344AF
:1010D0007B617B681B78002B04D07A69BB689A42DD
:1010E000FFF4FFAE7A69BB689A4203D2FB68002224
:1010F0001A7008E0FB68013BFB60FB6800221A7075
:101100007B69013B7B617B6918462037BD4680BD0A
:1011100080B584B000AFF860B9607A60F868642187
:10112000BA687B68FFF7CAFE034618461037BD460B
:1011300080BD00BFB0B5A6B000AFF860B9607A60FE
:10114000144B07F110041D460FCD0FC40FCD0FC473
:101150002B68236007F134031846B9687A68FFF7F3
:10116000D7FF0346632B09DD0B4B1B68DB6807F1D8
:1011700010021046194600F059F8FEE707F1340353
:101180001846F96800F052F8034618469837BD46ED
:10119000B0BD00BF581C00087004002080B582B0AC
:1011A00000AF78603960064B1B689B681846796809
:1011B0003A68FFF7BFFF034618460837BD4680BDB3
:1011C000700400200FB480B582B000AF07F11403A3
:1011D0003B6038693968FFF7E1FF78607B68184643
:1011E0000837BD46BDE8804004B0704780B582B086
:1011F00000AF786039600C4B1B689A683B689A4274
:1012000005D0094B1B68DA683B689A4206D17B68B7
:10121000DBB21846FFF7E2FC7B6801E04FF0FF33DA
:1012200018460837BD4680BD7004002080B584B0E4
:1012300000AF786039600023FB6012E07B681B78A8
:1012400018463968FFF7D2FF0346B3F1FF3F02D1DA
:101250004FF0FF330AE0FB680133FB607B6801332A
:101260007B607B681B78002BE8D1FB681846103741
:10127000BD4680BD80B487B000AF78603960002380
:101280007B6100233B610023FB6000237B6176E0F0
:101290007B69012202FA03F33B613B681A683B69F0
:1012A0001340FB60FA683B699A4265D17B681A6813
:1012B0007B695B00032101FA03F3DB431A407B687F
:1012C0001A607B681A683B681B7919467B695B006A
:1012D00001FA03F31A437B681A603B681B79012B00
:1012E00003D03B681B79022B2ED17B689A687B69FF
:1012F0005B00032101FA03F3DB431A407B689A6029
:101300007B689A683B685B7919467B695B0001FAE8
:1013100003F31A437B689A607B685A687B699BB2C7
:10132000012101FA03F3DB431A407B685A607B68B2
:101330005A683B689B7919467B699BB201FA03F3B3
:101340009BB21A437B685A607B68DA687B699BB200
:101350005B00032101FA03F3DB431A407B68DA6088
:101360007B68DA683B68DB7919467B695B0001FAC8
:1013700003F31A437B68DA607B6901337B617B6925
:101380000F2B85D91C37BD465DF8047B704700BF25
:1013900080B483B000AF78600B467B807B687A882E
:1013A0001A830C37BD465DF8047B704780B483B068
:1013B00000AF78600B467B807B687A885A830C3755
:1013C000BD465DF8047B704780B485B000AF78609F
:1013D00013460A467A807B700023FB600023BB60C3
:1013E0007A787B8803F007039B0002FA03F3FB6023
:1013F0007B88DB089BB21A467B88DB089BB21946C8
:101400007B68083153F821107B8803F007039B00A9
:101410000F2000FA03F3DB4319407B68083243F8DE
:1014200022107B88DB089BB21A467B68083253F88F
:101430002220FB681343BB607B88DB089BB21A4603
:101440007B680832B96843F822101437BD465DF84E
:10145000047B7047ABBE00F002B800207047002A42
:1014600000F0018010600120704706980188044A4E
:10147000914240F00380043006907047FEE7000080
:10148000ABBE000080B485B000AF78603960002347
:10149000FB607B681B68FB60FA68244B1340FB60B1
:1014A0003B681A683B68DB681A433B685B691A4310
:1014B0003B689B691A433B68DB691A433B681B6ABC
:1014C0001A433B685B6A1A433B689B6A1A433B6852
:1014D0005B6B1A433B689B6B1343FA681343FB60D7
:1014E0007B68FA681A607B685B69FB60FB6823F0C5
:1014F0000703FB603B68DA6A3B681B6B1343FA68BF
:101500001343FB607B68FA685A613B681A697B6821
:101510005A603B685A687B689A603B689A687B6847
:10152000DA601437BD465DF8047B70473F801CF0DD
:1015300080B483B000AF78600B46FB70FB78002B63
:1015400006D07B681B6843F001027B681A6005E0E7
:101550007B681B6823F001027B681A600C37BD466C
:101560005DF8047B704700BF80B485B000AF786041
:101570000023FB737B681B6803F00103002B02D080
:101580000123FB7301E00023FB73FB7B1846143738
:10159000BD465DF8047B704780B487B000AF7860CB
:1015A00039600023FB750023FB607A68154B9A4273
:1015B00002D8154B3B6101E0144B3B613B6803F0E3
:1015C0000053002B03D03B695B68FB6002E03B6982
:1015D0001B68FB60FB6823F0F02323F08213FB60A1
:1015E000FA683B681340002B02D00123FB7501E031
:1015F0000023FB75FB7D18461C37BD465DF8047B58
:10160000704700BF0F640240006002400064024067
:1016100080B485B000AF786039607A68104B9A4228
:1016200002D8104BFB6001E00F4BFB603B6803F0FE
:101630000053002B07D03B6823F0F02323F08213E4
:10164000FA68D36006E03B6823F0F02323F08213AE
:10165000FA6893601437BD465DF8047B704700BF9D
:101660000F640240006002400064024080B483B016
:1016700000AF786039600C37BD465DF8047B704779
:1016800080B400AF00231846BD465DF8047B704768
:1016900080B582B000AF78607A68174B9A420AD161
:1016A0004FF480500121FFF77BFA4FF48050002166
:1016B000FFF776FA1CE07A68104B9A420AD14FF491
:1016C00080400121FFF74EFA4FF480400021FFF7E0
:1016D00049FA0DE07A680A4B9A4209D14FF400406A
:1016E0000121FFF73FFA4FF400400021FFF73AFADB
:1016F0000837BD4680BD00BF0030014000380040C3
:10170000003C004080B485B000AF786039600023B1
:10171000FB817B681B88FB81FB8903F44153FB81C0
:101720003B681A883B685B8813439AB23B689B8886
:1017300013439AB23B68DB8813439AB23B681B8918
:1017400013439AB23B685B8913439AB23B689B8907
:1017500013439AB23B68DB8913439AB2FB89134364
:10176000FB817B68FA891A807B689B8B9BB223F490
:1017700000639AB27B689A833B681A8A7B681A82F4
:101780001437BD465DF8047B704700BF80B483B05A
:1017900000AF78600B46FB70FB78002B08D07B68AD
:1017A0001B889BB243F040039AB27B681A8007E023
:1017B0007B681B889BB223F040039AB27B681A8037
:1017C0000C37BD465DF8047B704700BF80B483B022
:1017D00000AF78607B689B899BB218460C37BD468A
:1017E0005DF8047B704700BF80B483B000AF7860C1
:1017F0000B467B807B687A889A810C37BD465DF802
:10180000047B704780B485B000AF78600B467B8066
:101810000023FB737B681B899AB27B8813409BB2C1
:10182000002B02D00123FB7301E00023FB73FB7B41
:1018300018461437BD465DF8047B704780B485B008
:1018400000AF78600023FB730023BB730F237B730F
:101850007B68DB78002B37D0254BDB68DB4303F458
:10186000E0631B0AFB73FB7BC3F10403BB737A7B4E
:10187000FB7B42FA03F37B737B685B781A46BB7B86
:1018800002FA03F3FB737B689A787B7B1340DAB22E
:10189000FB7B1343FB73FB7B1B01FB73154A7B68CC
:1018A0001B781344FA7B83F80023124B7A68127872
:1018B0005209D2B27968097801F01F01012000FABB
:1018C00001F143F822100EE00A4B7A6812785209AF
:1018D000D2B27968097801F01F01012000FA01F104
:1018E000203243F822101437BD465DF8047B704760
:1018F00000ED00E000E100E080B584B000AF78606A
:101900000023FB7300F0AEF87B685A787B681B7885
:101910001343DAB27B68DB781343DAB27B681B7956
:101920001343DAB27B689B781343DBB2FB7307F196
:101930000F0318462021012200F02EF81037BD4673
:1019400080BD00BF80B584B000AF78600023FB731A
:1019500007F10F0318462121012200F04DF8FB7B0F
:1019600023F02F03DBB2FB737B681A787B685B780C
:101970001343DAB27B689B781343DAB2FB7B1343E1
:10198000DBB2FB7307F10F0318462121012200F09F
:1019900003F81037BD4680BD80B582B000AF7860D7
:1019A00013460A46FA703B803B88012B03D9FB782B
:1019B00043F04003FB700F480821FFF7F7FCFB786A
:1019C000184600F0E9F80AE07B681B78184600F03A
:1019D000E3F83B88013B3B807B6801337B603B88BD
:1019E000002BF1D103480821FFF7D2FC0837BD4690
:1019F00080BD00BF0010024080B582B000AF7860AB
:101A000013460A46FA703B803B88012B04D9FB78C9
:101A100063F03F03FB7003E0FB7863F07F03FB7030
:101A20000F480821FFF7C2FCFB78184600F0B4F815
:101A30000CE0002000F0B0F803461A467B681A70EC
:101A40003B88013B3B807B6801337B603B88002BFC
:101A5000EFD103480821FFF79BFC0837BD4680BD46
:101A60000010024080B588B000AF4FF480500121D3
:101A7000FFF75AF801200121FFF738F81020012163
:101A8000FFF734F810200121FFF730F81020012172
:101A9000FFF72CF83D4805210522FFF795FC3B4850
:101AA00006210522FFF790FC384807210522FFF7A1
:101AB0008BFC02233B770023BB770223FB770223B7
:101AC0007B772023BB6107F1180330481946FFF7E5
:101AD000D1FB8023BB6107F118032C481946FFF79F
:101AE000C9FB4023BB6107F1180328481946FFF7DB
:101AF000C1FB2748FFF7CCFD0023BB8000233B81BF
:101B000000237B810023BB814FF40073FB810823FA
:101B10003B8200237B820723BB824FF48273FB80CE
:101B20003B1D1B481946FFF7EDFD19480121FFF742
:101B30002DFE0823BB6101233B770023BB770223E3
:101B40007B7707F1180313481946FFF793FB1148F9
:101B50000821FFF71DFC0123BB6100233B77002315
:101B6000BB7702237B770023FB7707F11803094833
:101B70001946FFF77FFB0223BB6107F118030548F5
:101B80001946FFF777FB2037BD4680BD00000240B5
:101B9000003001400010024080B582B000AF034623
:101BA000FB711F4B4FF480521A600BE01C4B1B68FB
:101BB000591E1B4A1160002B04D1FEF73BFE034661
:101BC000DBB229E017480221FFF71CFE0346002B79
:101BD000ECD0FB799BB213481946FFF705FE104B7A
:101BE0004FF480521A600BE00D4B1B68591E0C4AD3
:101BF0001160002B04D1FEF71DFE0346DBB20BE0A3
:101C000008480121FFF7FEFD0346002BECD00548F4
:101C1000FFF7DCFD0346DBB218460837BD4680BD42
:101C2000780400200030014025642C202564202CFD
:101C300025640A0077656C636F6D650D0A0000000E
:101C40004C4544204F4E0D0A000000004C454420F6
:101C50004F46460D0A000000737464696F2E633AA4
:101C600020696E637265617365204D41585F5354FE
:0C1C700052494E475F53495A450A0D0087
:101C7C00FFFF0000FFFF000000C012000100000089
:101C8C0000002000B86002400C3C00402F00000017
:101C9C00000000280000002400004020000000226A
:101CAC0000000021000000000102030401020304F3
:101CBC0006070809000000000000000000000000FA
:101CCC000100000000000000000000000000000007
:101CDC0000000000000000000000000000000000F8
:101CEC0000000000000000000000000000000000E8
:101CFC0000000000000000000000000000000000D8
:101D0C0000000000000000000000000000000000C7
:0C20EC0048000020000000000010000070
:0400000508000000EF
:00000001FF
