:020000040800F2
:10000000E0080020B10600080D070008570E0008A0
:100010000D0700080D0700080D070008000000008C
:100020000000000000000000000000000D070008B4
:100030000D070008000000000D0700080D0700086C
:100040000D0700080D0700080D0700080D07000840
:100050000D0700080D0700080D0700080D07000830
:100060000D0700080D0700080D0700088D020008A5
:100070000D0700080D0700080D0700080D07000810
:100080000D0700080D0700080D0700080D07000800
:100090000D0700080D0700080D0700080D070008F0
:1000A0000D0700080D0700080D0700080D070008E0
:1000B0000D0700080D0700080D0700080D070008D0
:1000C0000D0700080D0700080D0700080D070008C0
:1000D0000D070008650800080D0700080D07000857
:1000E0000D0700080D0700080D0700080D070008A0
:1000F0000D0700080D0700080D0700088102000821
:100100000D0700080D0700080D07000899020008F8
:100110000D0700080D0700080D0700080D0700086F
:100120000D0700080D0700080D0700080D0700085F
:100130000D0700080D0700080D0700080D0700084F
:100140000D0700080D0700080D0700080D0700083F
:100150000D0700080D0700080D0700080D0700082F
:100160000D0700080D0700080D0700080D0700081F
:100170000D0700080D0700080D0700080D0700080F
:100180000D0700080D07000880B500AF374B1A684F
:10019000374B1B681046194600F09AFF0346002BA8
:1001A00062D0344B1B68002B4AD000BF2F4B1B681A
:1001B000184600F075FF0346002BF7D12B4B1A6849
:1001C0002B4B1B681046194600F0BEFF2A4B1B68DC
:1001D0001A462A4B9A60274B1A684FF6FF739A42C9
:1001E00028BF1A46254B1A61204B1B681846234925
:1001F00000F0E4FE1D4B1B681846012100F034FF9F
:100200001D4B1A681B4B19684FF6FF73994238BF94
:100210000B465B001A44184B1A60164B1A68154BB4
:1002200019684FF6FF73994238BF0B46D21A114B2B
:100230001A600E4B1B681846012100F015FF13E0F1
:100240000A4B1B681846002100F00EFF074B1A6886
:10025000074B1B681046194600F076FF064B1B68DB
:100260001846002100F09EFF80BD00BF1400002052
:10027000200000200400002064000020A4000020D2
:1002800080B500AFFFF780FF80BD00BF80B500AF35
:10029000FFF77AFF80BD00BF80B500AF0C48022198
:1002A00000F0A0FF0346002B11D00A4B1B68022B65
:1002B00006D100F081FF03460420194600F0DEF964
:1002C00000F07AFF03460248194600F07DFF80BD2A
:1002D000003C00400C00002080B58AB000AF786080
:1002E000396000237B6200233B620023FB61002313
:1002F000BB617B681B8A9BB27B627B6A23F44053A1
:100300007B623B68DB887A6A13437B627B6A9AB2C2
:100310007B681A827B689B899BB27B627B6A23F431
:10032000B05323F00C037B623B689A883B681B89BF
:1003300013439AB23B685B8913439BB27A6A1343B7
:100340007B627B6A9AB27B689A817B689B8A9BB24C
:100350007B627B6A23F440737B623B689B897A6A89
:1003600013437B627B6A9AB27B689A8207F1080327
:10037000184600F07FFB7A68314B9A4203D07A68C6
:10038000304B9A4202D17B693B6201E03B693B62A0
:100390007B689B899BB29BB21BB2002B0CDA3A6A3A
:1003A00013469B0013449A001A443B681B685B0089
:1003B000B2FBF3F3FB610BE03A6A13469B00134474
:1003C0009A001A443B681B689B00B2FBF3F3FB6185
:1003D000FA691D4BA3FB02135B091B017B627B6A5D
:1003E0001B09642202FB03F3FA69D31ABB617B6821
:1003F0009B899BB29BB21BB2002B0DDABB69DB0061
:1004000003F13202104BA3FB02135B0903F0070355
:100410007A6A13437B620CE0BB691B0103F1320271
:10042000094BA3FB02135B0903F00F037A6A134322
:100430007B627B6A9AB27B681A812837BD4680BD91
:1004400000100140001401401F85EB5180B483B0BF
:1004500000AF78600B46FB70FB78002B08D07B6800
:100460009B899BB243F400539AB27B689A8107E060
:100470007B689B899BB223F400539AB27B689A8174
:100480000C37BD465DF8047B704700BF80B483B075
:1004900000AF78600B467B807B88DBB29AB27B68CA
:1004A0009A800C37BD465DF8047B704780B483B0FA
:1004B00000AF78607B689B889BB2DBB29BB218462A
:1004C0000C37BD465DF8047B704700BF80B487B031
:1004D00000AF786013460A467A807B7000233B6148
:1004E0000023FB600023BB6000237B617B687B6192
:1004F0007B88DBB25B09DBB23B617B8803F01F03C7
:10050000FB60FB68012202FA03F3BB603B69012B2D
:1005100003D17B690C337B6109E03B69022B03D17A
:100520007B6910337B6102E07B6914337B617B78EC
:10053000002B06D07B697A691168BA680A431A6091
:1005400006E07B697A691168BA68D2430A401A608A
:100550001C37BD465DF8047B704700BF80B485B092
:1005600000AF78600B467B800023FB737B681B88A1
:100570009AB27B8813409BB2002B02D00123FB73FD
:1005800001E00023FB73FB7B18461437BD465DF882
:10059000047B704780B487B000AF78600B467B80E7
:1005A0000023FB6000237B610023BB600023FB74FE
:1005B0007B88DBB25B09DBB2BB607B8803F01F0387
:1005C0007B617B69012202FA03F37B61BB68012B2B
:1005D00006D17B689B899BB27A6913407B610FE0EF
:1005E000BB68022B06D17B681B8A9BB27A691340D9
:1005F0007B6105E07B689B8A9BB27A6913407B61D3
:100600007B881B0A9BB2FB60FB68012202FA03F3A2
:10061000FB607B681B889BB2FA681340FB607B69B8
:10062000002B05D0FB68002B02D00123FB7401E0F6
:100630000023FB74FB7C18461C37BD465DF8047B29
:10064000704700BF80B485B000AF78600B467B80F8
:100650000023FB810023BB817B881B0AFB81FB8974
:10066000012202FA03F3BB81BB89DB439AB27B68A8
:100670001A801437BD465DF8047B704780B485B09E
:1006800000AF78600B467B800023FB60074BFB606C
:10069000FA687B6813440833FB60FB687A881A6049
:1006A0001437BD465DF8047B704700BF00740040FE
:1006B00080B582B000AF104B7B60104B3B6007E011
:1006C0003B681A1D3A607A68111D796012681A60D9
:1006D0003A680B4B9A42F3D30A480B494FF0000299
:1006E0008842B8BF40F8042BFFF6FAAF00F012F8CA
:1006F0000837BD4680BD00BF581500080000002027
:100700005800002058000020E000002080B400AF16
:10071000FEE700BF80B582B000AF3123BB8001236C
:10072000FB714FF4165000F039F900F0A1FB00F016
:1007300033F800F015F80948102100F02DFB00F007
:100740004BF804E03B1D1846022100F007F9FB7945
:10075000002BF7D118460837BD4680BD0004024083
:1007600080B582B000AF0220012100F02DFA3023C5
:100770003B6001233B7103237B710023BB7100238A
:10078000FB713B460348194600F078FA0837BD462E
:1007900080BD00BF0004024080B582B000AF0220DF
:1007A000012100F011FA40233B6002233B71032337
:1007B0007B710023BB710123FB713B460548194641
:1007C00000F05CFA03480621022200F0F3FA083731
:1007D000BD4680BD0004024080B58AB000AF042051
:1007E000012100F00FFA1C4B1A681C4BA3FB0213EB
:1007F000DB0C9BB2013BFB844FF6FF73FB61FB8C70
:100800003B8300233B8400237B8307F118031448B8
:10081000194600F061FD6023BB800123FB800023AB
:10082000FB6000233B823B1D0D48194600F0FEFD96
:100830000B48082100F074FE0123FB800023FB60BD
:100840000748012100F0B2FD0548012100F0CEFD6E
:100850002837BD4680BD00BF4400002083DE1B4317
:100860000008004080B500AF364840F22661FFF72F
:1008700091FE0346012B17D132484021FFF76EFE4F
:100880000346002B0BD0304B1B882E481946FFF730
:10089000FDFD2C4840F226610022FFF717FE294893
:1008A00040F22661FFF7CEFE264840F22551FFF7C1
:1008B00071FE0346012B18D122482021FFF74EFE7E
:1008C0000346002B0CD01F48FFF7F0FD03461A46E5
:1008D0001D4B1A801B4840F226610122FFF7F6FDEE
:1008E000184840F22551FFF7ADFE174B1B88822BAD
:1008F00002D1164B46221A60134B1B888C2B02D157
:10090000124B0A221A60104B1B888E2B02D10F4B00
:1009100032221A600C4B1B88B02B02D10B4B5A228F
:100920001A600B49094B1A6813461B049B1A094AA3
:1009300082FB03025211DB17D31A4B63064800F007
:1009400089F880BD00100140600000205C0000209C
:10095000000800401F85EB51A086010080B582B0E1
:1009600000AF786039600FE000BF0B488021FFF7CF
:10097000F5FD0346002BF8D07B685A1C7A601B7883
:1009800005481946FFF782FD3B685A1E3A60002B66
:10099000EAD10837BD4680BD0010014080B58AB05D
:1009A00000AF78601020012100F04AF901200121F8
:1009B00000F00AF94FF4C0633B62022387F8243049
:1009C000022387F82530002387F82630002387F894
:1009D000273007F120031D48194600F04FF91B4846
:1009E0000921072200F0E6F918480A21072200F041
:1009F000E1F97B683B610023BB820023FB8200237B
:100A00003B830023BB830C237B8307F11003104837
:100A10001946FFF761FC0E4840F225510122FFF70D
:100A200055FD25233B7300237B730023BB730123F8
:100A3000FB7307F10C03184600F0F0FB044801219A
:100A4000FFF704FD2837BD4680BD00BF000002400F
:100A50000010014080B483B000AF786000BF7B68B5
:100A60005A1E7A60002BFAD10C37BD465DF8047B24
:100A7000704700BF80B489B000AF78600023BB61CD
:100A800000237B610023FB6102233B610023FB60A9
:100A90000223BB60484B9B6803F00C03BB61BB693E
:100AA000042B07D0082B09D0002B3FD17B68434A89
:100AB0001A603FE07B68424A1A603BE03E4B5B684D
:100AC00003F480039B0DFB603B4B5B6803F03F032B
:100AD000BB60FB68002B0DD0394ABB68B2FBF3F258
:100AE000354B596847F6C0730B409B0903FB02F373
:100AF000FB610CE0314ABB68B2FBF3F22E4B596844
:100B000047F6C0730B409B0903FB02F3FB612A4BC2
:100B10005B6803F440331B0C01335B003B61FA69F3
:100B20003B69B2FBF3F27B681A6003E07B68234AFF
:100B30001A6000BF204B9B6803F0F003BB61BB69E8
:100B40001B09BB611F4ABB6913441B78DBB27B6185
:100B50007B681A687B69DA407B685A60164B9B6831
:100B600003F4E053BB61BB699B0ABB61154ABB69D7
:100B700013441B78DBB27B617B685A687B69DA407F
:100B80007B689A600C4B9B6803F46043BB61BB6954
:100B90005B0BBB610B4ABB6913441B78DBB27B6107
:100BA0007B685A687B69DA407B68DA602437BD4627
:100BB0005DF8047B704700BF003802400024F40059
:100BC00000127A003400002080B483B000AF786057
:100BD0000B46FB70FB78002B06D0094B084A116BC3
:100BE0007A680A431A6306E0054B054A116B7A6876
:100BF000D2430A401A630C37BD465DF8047B704748
:100C00000038024080B483B000AF78600B46FB70C0
:100C1000FB78002B06D0094B084A116C7A680A430E
:100C20001A6406E0054B054A116C7A68D2430A4003
:100C30001A640C37BD465DF8047B704700380240EB
:100C400080B483B000AF78600B46FB70FB78002B5C
:100C500006D0094B084A516C7A680A435A6406E088
:100C6000054B054A516C7A68D2430A405A640C37E6
:100C7000BD465DF8047B70470038024080B487B001
:100C800000AF7860396000237B6100233B61002363
:100C9000FB6000237B6176E07B69012202FA03F3AB
:100CA0003B613B681A683B691340FB60FA683B692B
:100CB0009A4265D17B681A687B695B00032101FA5F
:100CC00003F3DB431A407B681A607B681A683B6851
:100CD0001B7919467B695B0001FA03F31A437B68B1
:100CE0001A603B681B79012B03D03B681B79022BF0
:100CF0002ED17B689A687B695B00032101FA03F3BC
:100D0000DB431A407B689A607B689A683B685B7932
:100D100019467B695B0001FA03F31A437B689A600A
:100D20007B685A687B699BB2012101FA03F3DB43BC
:100D30001A407B685A607B685A683B689B79194601
:100D40007B699BB201FA03F39BB21A437B685A603A
:100D50007B68DA687B699BB25B00032101FA03F3CD
:100D6000DB431A407B68DA607B68DA683B68DB79D2
:100D700019467B695B0001FA03F31A437B68DA606A
:100D80007B6901337B617B690F2B85D91C37BD469D
:100D90005DF8047B704700BF80B483B000AF78601B
:100DA0000B467B807B687A881A830C37BD465DF8DA
:100DB000047B704780B485B000AF786013460A4664
:100DC0007A807B700023FB600023BB607A787B888D
:100DD00003F007039B0002FA03F3FB607B88DB0848
:100DE0009BB21A467B88DB089BB219467B680831A8
:100DF00053F821107B8803F007039B000F2000FAB3
:100E000003F3DB4319407B68083243F822107B88E8
:100E1000DB089BB21A467B68083253F82220FB6835
:100E20001343BB607B88DB089BB21A467B680832A1
:100E3000B96843F822101437BD465DF8047B70474B
:100E4000ABBE00F002B800207047002A00F001801D
:100E500010600120704706980188044A914240F0D2
:100E60000380043006907047FEE70000ABBE000030
:100E700080B500AF114B114A126842F001021A60AE
:100E80000E4B00229A600D4A0C4B1B6823F08473B2
:100E900023F480331360094B094A5A60074B074A11
:100EA000126822F480221A60044B0022DA6000F0FB
:100EB0000BF8044B4FF000629A6080BD003802408E
:100EC0001030002400ED00E080B483B000AF0023B8
:100ED0007B6000233B60354B344A126842F4803219
:100EE0001A60324B1B6803F400333B607B680133AC
:100EF0007B603B68002B03D17B68B3F5A06FF0D11A
:100F00002A4B1B6803F40033002B02D001233B6003
:100F100001E000233B603B68012B42D1234B234A75
:100F2000126C42F080521A64214B214A126842F43A
:100F300080421A601D4B1D4A92689A601B4B1B4AE7
:100F4000926842F400429A60184B184A926842F440
:100F5000A0529A60154B174A5A60144B134A1268F4
:100F600042F080721A6000BF104B1B6803F00073E0
:100F7000002BF9D0104B40F205621A600B4B0B4A64
:100F8000926822F003029A60084B084A926842F085
:100F900002029A6000BF054B9B6803F00C03082B0C
:100FA000F9D10C37BD465DF8047B7047003802402C
:100FB0000070004019544007003C024080B485B0E6
:100FC00000AF786039600023FB607B681B68FB60C2
:100FD000FA68244B1340FB603B681A683B68DB6887
:100FE0001A433B685B691A433B689B691A433B6839
:100FF000DB691A433B681B6A1A433B685B6A1A4306
:101000003B689B6A1A433B685B6B1A433B689B6B6C
:101010001343FA681343FB607B68FA681A607B68C5
:101020005B69FB60FB6823F00703FB603B68DA6ADF
:101030003B681B6B1343FA681343FB607B68FA68D9
:101040005A613B681A697B685A603B685A687B68DA
:101050009A603B689A687B68DA601437BD465DF831
:10106000047B70473F801CF080B483B000AF786091
:101070000B46FB70FB78002B06D07B681B6843F0A7
:1010800001027B681A6005E07B681B6823F001029F
:101090007B681A600C37BD465DF8047B704700BF63
:1010A00080B485B000AF78600023FB737B681B6859
:1010B00003F00103002B02D00123FB7301E00023A6
:1010C000FB73FB7B18461437BD465DF8047B704705
:1010D00080B487B000AF786039600023FB750023CF
:1010E000FB607A68154B9A4202D8154B3B6101E0D0
:1010F000144B3B613B6803F00053002B03D03B696A
:101100005B68FB6002E03B691B68FB60FB6823F0E7
:10111000F02323F08213FB60FA683B681340002B36
:1011200002D00123FB7501E00023FB75FB7D18460F
:101130001C37BD465DF8047B704700BF0F6402405A
:10114000006002400064024080B485B000AF786067
:1011500039607A68104B9A4202D8104BFB6001E06C
:101160000F4BFB603B6803F00053002B07D03B683C
:1011700023F0F02323F08213FA68D36006E03B6883
:1011800023F0F02323F08213FA6893601437BD46EE
:101190005DF8047B704700BF0F64024000600240AE
:1011A0000064024080B483B000AF786039600C37CF
:1011B000BD465DF8047B704780B400AF002318463D
:1011C000BD465DF8047B704780B483B000AF7860A3
:1011D0000B467B807B687A889A810C37BD465DF828
:1011E000047B704780B485B000AF78600B467B808D
:1011F0000023FB737B681B899AB27B8813409BB2E8
:10120000002B02D00123FB7301E00023FB73FB7B67
:1012100018461437BD465DF8047B704780B485B02E
:1012200000AF78600023FB730023BB730F237B7335
:101230007B68DB78002B37D0254BDB68DB4303F47E
:10124000E0631B0AFB73FB7BC3F10403BB737A7B74
:10125000FB7B42FA03F37B737B685B781A46BB7BAC
:1012600002FA03F3FB737B689A787B7B1340DAB254
:10127000FB7B1343FB73FB7B1B01FB73154A7B68F2
:101280001B781344FA7B83F80023124B7A68127898
:101290005209D2B27968097801F01F01012000FAE1
:1012A00001F143F822100EE00A4B7A6812785209D5
:1012B000D2B27968097801F01F01012000FA01F12A
:1012C000203243F822101437BD465DF8047B704786
:1012D00000ED00E000E100E080B485B000AF786090
:1012E00039600023FB817B681B88FB817A68284B6F
:1012F0009A4213D07A68274B9A420FD07B68B3F199
:10130000804F0BD07A68244B9A4207D07A68234BDF
:101310009A4203D07A68224B9A4208D1FB8923F083
:101320007003FB813B685A88FB891343FB817A6811
:101330001C4B9A420CD07A681B4B9A4208D0FB890E
:1013400023F44073FB813B681A89FB891343FB81BB
:101350007B68FA891A803B685A687B68DA623B6866
:101360001A887B681A857A68094B9A4203D07A6892
:10137000084B9A4204D13B689B7A1A467B681A86CE
:101380007B6801229A821437BD465DF8047B704762
:10139000000001400004014000040040000800403B
:1013A000000C0040001000400014004080B483B0E6
:1013B00000AF78600B46FB70FB78002B08D07B6891
:1013C0001B889BB243F080039AB27B681A8007E0C7
:1013D0007B681B889BB223F080039AB27B681A80DB
:1013E0000C37BD465DF8047B704700BF80B483B006
:1013F00000AF78600B46FB70FB78002B08D07B6851
:101400001B889BB243F001039AB27B681A8007E005
:101410007B681B889BB223F001039AB27B681A8019
:101420000C37BD465DF8047B704700BF80B485B0C3
:1014300000AF7860396000237B810023FB810023AB
:10144000BB817B681B8C9BB223F001039AB27B6843
:101450001A847B681B8CFB817B689B88BB817B68C3
:101460001B8B7B817B8923F070037B817B8923F03D
:1014700003037B813B681A887B8913437B81FB894B
:1014800023F00203FB813B689A89FB891343FB81AC
:101490003B685A88FB891343FB817A681E4B9A424A
:1014A00003D07A681D4B9A4223D1FB8923F00803AD
:1014B000FB813B68DA89FB891343FB81FB8923F0BD
:1014C0000403FB813B689A88FB891343FB81BB893A
:1014D00023F48073BB81BB8923F40073BB813B6819
:1014E0001A8ABB891343BB813B685A8ABB89134361
:1014F000BB817B68BA899A807B687A891A833B684A
:101500009A687B685A637B68FA891A841437BD46E7
:101510005DF8047B704700BF0000014000040140FB
:1015200080B485B000AF78600B467B800023FB81E0
:101530007B681B8BFB81FB8923F00803FB81FA8905
:101540007B881343FB817B68FA891A831437BD4675
:081550005DF8047B704700BF49
:10155800FFFF0000FFFF000000C0120001000000B4
:1015680000002000B86002400C3C00402F00000042
:101578000000002800000024000040200000002295
:10158800000000210000000001020304010203041E
:1015980006070809007A030A00000000000000009E
:0815A800010203040607080913
:0400000508000000EF
:00000001FF
